:020000040800F2
:100000007822002019160008191C0008251C000879
:100010002D1C0008351C00083D1C000800000000D5
:10002000000000000000000000000000451C000867
:10003000511C0008000000005D1C0008691C00083D
:100040008916000889160008891600088916000814
:100050008916000889160008611E00088916000824
:1000600089160008891600088916000889160008F4
:1000700089160008891600088916000889160008E4
:1000800089160008891600088916000889160008D4
:1000900089160008891600088916000889160008C4
:1000A00089160008891600088916000889160008B4
:1000B00089160008751C00088916000889160008B2
:1000C0008916000889160008891600088916000894
:1000D0008916000889160008891600088916000884
:1000E0008916000889160008E531000889160008FD
:1000F000B91E00088916000889160008891600082C
:100100008916000889160008891600088916000853
:100110008916000889160008891600088916000843
:10012000E11C0008891600088916000889160008D5
:100130008916000889160008891600088916000823
:10014000891600088916000889160008F53100088C
:100150008916000889160008891600088916000803
:1001600089160008891600088916000889160008F3
:1001700089160008891600088916000889160008E3
:10018000891600088916000890B484B000AF0246B2
:100190000B46FA71BB710023FB60BB7903F00303CC
:1001A0009B000F2202FA03F3FB60154BBA79920809
:1001B000D2B21349B8798008C0B2023051F8200099
:1001C000F968C9430140023243F822100C4BBA7956
:1001D0009208D2B20A49B8798008C0B2023051F808
:1001E0002000FC79B97901F00301890004FA01F1DA
:1001F0000143023243F822101037BD4690BC7047CD
:100200000038014080B485B000AF78600023FB6007
:100210007B68DB684FF0FF325A607B68DB686FF009
:1002200080425A61FB7B43F08003FB737B7B43F08E
:1002300008037B737B68DB68FA689A611437BD46F4
:100240005DF8047B704700BF80B586B000AF786072
:100250000023FB7400237B610023FB60032002F07A
:100260008DFF7B68DB681B69FB607B6901337B6109
:100270007A69174B9A4201D9002324E0FB68DB0F0F
:10028000DBB2002BEAD000237B61FB6843F0010363
:10029000FB607B68DB68FA681A617B68DB681B6956
:1002A000FB607B6901337B617A69094B9A4200D913
:1002B00005E0FB6803F00103DBB2012BEDD0032066
:1002C00002F05CFFFB7C18461837BD4680BD00BFBE
:1002D000400D030080B489B000AFF860B960FA71D6
:1002E000BB800023FB76FB68DB78002B22D1002348
:1002F0007B610023FB61BB880333002B00DA0333EF
:100300009B107B61FB79FA6832339B0013449B6836
:100310003B610023FB6109E0BB681A683B691A6016
:10032000FB690133FB61BB680433BB60FA697B691D
:100330009A42F1D3FB7E18462437BD465DF8047B14
:10034000704700BF80B489B000AFF860B960134651
:10035000FB800023FB61FB880333002B00DA0333AF
:100360009B10BB61FB68D3F8D0307B610023FB613D
:1003700009E07B691A68BB681A60FB690133FB619D
:10038000BB680433BB60FA69BB699A42F1D3BB68AE
:1003900018462437BD465DF8047B704780B487B0AB
:1003A00000AF78600B46FB7000233B610023FB73BA
:1003B0007B680022DA707B6801229A707B68402299
:1003C0009A80FB78012B13D14FF0A0433B617B68EF
:1003D0000122DA727B6808221A707B6804225A7044
:1003E0007B684FF4A072DA807B6802221A7211E0F7
:1003F000FB78002B0ED1454B3B617B680022DA7203
:100400007B680C221A707B6806225A707B684FF456
:10041000A062DA803A697B68DA603B6903F50063C1
:100420001A467B681A6100237B611CE07B695A01D4
:100430003B69134403F510631A4679687B690433FA
:100440009B000B449A607B695A013B69134403F596
:1004500030631A4679687B6914339B000B445A60F9
:100460007B6901337B617B685B781A467B699A42C2
:10047000DCD83B6903F580631A467B685A613B69A7
:1004800003F588631A467B68C3F8CC2000237B61A0
:100490000FE07B695A013B69134403F5A0631A46D8
:1004A00079687B6922339B000B449A607B69013336
:1004B0007B617B681B781A467B699A42E9D80023E6
:1004C0007B610FE07B691A033B69134403F580539A
:1004D0001A4679687B6932339B000B449A607B69CA
:1004E00001337B617B681B781A467B699A42E9D8A5
:1004F0003B6903F560631A467B68C3F80C21FB7BFC
:1005000018461C37BD465DF8047B70470000044068
:1005100080B586B000AF78600023FB7500233B6197
:100520000023FB600023BB607B681B7A012B42D158
:100530007B68DB689B6BFB60BB7B6FF30003BB736B
:100540007B685B7A002B03D0BB7B43F01003BB734B
:100550007B68DB68FA689A6300233B617B68DB6831
:10056000DB683B613B7C6FF386133B74BB7C6FF3B2
:100570008613BB74BB7C6FF34103BB74BB7C6FF30E
:10058000C303BB747B68DB683A69DA607868FFF79D
:100590005BFE7B68DB78012B3DD13B7A052262F361
:1005A00044033B723B7A43F020033B727B68DB6879
:1005B000BA689A602FE07B68DB68DB683B613B7C54
:1005C00043F040033B747B68DB683A69DA60786823
:1005D000FFF73AFE0023FB60BB7B43F00103BB73D4
:1005E000BB7B43F00403BB73BB7B43F00803BB73CB
:1005F000BB7B43F02003BB737B685B7A002B03D08B
:10060000BB7B43F01003BB737B68DB68FA689A63BB
:10061000142002F0D7FD7B68DB78012B10D17B68BA
:10062000DB689B68BB603B7A052262F344033B7244
:100630003B7A43F020033B727B68DB68BA689A60C0
:10064000FB7D18461837BD4680BD00BF80B485B01D
:1006500000AF78600023FB730023BB603B7A43F05C
:1006600001033B727B68DB687A68D2689168BA687C
:100670000A439A60FB7B18461437BD465DF8047B3D
:10068000704700BF80B485B000AF78600023FB7373
:100690000023BB603B7A43F001033B727B68DB685D
:1006A0007A68D2689168BA68D2430A409A60FB7B44
:1006B00018461437BD465DF8047B704780B586B098
:1006C00000AF786039600023FB7400237B61002356
:1006D000FB60FB6843F02003FB603B68DBB203F088
:1006E0001F03DAB2FB6862F38A13FB607B68DB6886
:1006F000FA681A617B68DB681B69FB607B69013300
:100700007B617A69094B9A4200D906E0FB685B0974
:1007100003F00103DBB2012BECD0032002F02EFD2D
:10072000FB7C18461837BD4680BD00BF400D030056
:1007300080B586B000AF78600023FB7400237B6136
:100740000023FB60FB6843F01003FB607B68DB6801
:10075000FA681A617B68DB681B69FB607B6901339F
:100760007B617A69094B9A4200D906E0FB681B0954
:1007700003F00103DBB2012BECD0032002F0FEFCFE
:10078000FB7C18461837BD4680BD00BF400D0300F6
:1007900080B584B000AF78600B46FB700023FB731C
:1007A0007B68DB68DB68BB60FB7A6FF34513FB7229
:1007B000FB7A6FF38613FB72FB78012B04D1FB7A73
:1007C00043F02003FB7206E0FB78002B03D1FB7A99
:1007D00043F04003FB727B68DB68BA68DA60322062
:1007E00002F0F0FCFB7B18461037BD4680BD00BF11
:1007F00080B483B000AF78607B68DB685B6903F02E
:10080000010318460C37BD465DF8047B704700BFF6
:1008100080B582B000AF78607868FFF7E9FF0346E3
:10082000012B0CBF00230123DBB218460837BD465D
:1008300080BD00BF80B485B000AF78600023FB604E
:100840007B68DB685B69FB607B68DB689B69FA68D7
:100850001340FB60FB6818461437BD465DF8047B07
:10086000704700BF80B485B000AF78600B46FB7066
:100870007B681B691B68FB60FB7803F00303DAB23B
:100880003B7B62F301033B737B681B69FA681A6068
:100890001437BD465DF8047B704700BF80B58CB04F
:1008A00000AF7860002387F82B3000237B620023A1
:1008B0003B620023FB610023BB6100237B617B68FB
:1008C000D3F80C3100221A607B681B691B683B62FD
:1008D00097F821306FF3C40387F821307B681B69D8
:1008E0003A6A1A607B68DB7A012B41D17868032170
:1008F000FFF7B8FF7B68DB6880225A62FB8B2022FF
:1009000062F30F03FB83BB8B802262F30F03BB8375
:100910007B68DB68FA699A62BA8BFB8B13449BB2E3
:100920003B837B8B802262F30F037B837B68DB68D6
:10093000BA69C3F804213A8B7B8B13449BB23B8387
:100940007B8B202262F30F037B837B68DB68BA69B1
:10095000C3F808213A8B7B8B13449BB23B837B8B80
:100960006FF30F037B837B68DB68BA69C3F80C21E4
:1009700078681021FFF7A2FE7868FFF7D9FE7B6840
:100980001B6900221A617B681B6900225A617B681F
:100990001B694FF0FF329A617B681B690022DA61A4
:1009A0000023FB623AE07A68FB6A04339B0013443D
:1009B0009B681B687B6297F82730C3F3C013DBB2D8
:1009C000002B0ED000237B6297F8273043F04003C2
:1009D00087F8273097F8273043F0080387F8273047
:1009E00001E000237B627A68FB6A04339B001344B6
:1009F0009B687A6A1A607A68FB6A04339B00134426
:100A00009B6800221A617A68FB6A04339B001344D6
:100A10009B68FF229A60FB6A0133FB627B685B780C
:100A20001A46FB6A9A42BED80023FB6235E07A6818
:100A3000FB6A14339B0013445B681B68FB60FB7B01
:100A4000C3F3C013DBB2002B0AD00023FB60FB7B97
:100A500043F04003FB73FB7B43F00803FB7301E0AF
:100A60000023FB607A68FB6A14339B0013445B68C5
:100A7000FA681A607A68FB6A14339B0013445B6857
:100A800000221A617A68FB6A14339B0013445B6886
:100A9000FF229A60FB6A0133FB627B685B781A462F
:100AA000FB6A9A42C3D800237B617B7D43F001033C
:100AB0007B757B681B697A68126911697A69D24310
:100AC00011407A690A431A617B68DB78012B1BD1DC
:100AD00000233B613B7C43F001033B743B7C43F0D0
:100AE00002033B743B8A402262F38A033B82BB7C55
:100AF00043F00103BB747B8A402262F349037B828B
:100B00007B681B693A691A63786800F007F897F800
:100B10002B3018463037BD4680BD00BF80B584B04D
:100B200000AF78600023FB730023BB607B68DB6849
:100B300000229A617B68DB686FF080425A617868B6
:100B4000FFF760FB7B68DB78002B03D13B7A43F037
:100B500010033B727B7A43F008037B727B7A43F08D
:100B600010037B727B7A43F020037B72BB7A43F0E5
:100B70000403BB72BB7A43F00803BB723B7A43F0B9
:100B800008033B72BB7A43F01003BB72BB7A43F09D
:100B90002003BB727B68DB687A68D2689169BA68A7
:100BA000D2431140BA680A439A61FB7B184610375A
:100BB000BD4680BD80B485B000AF78600023FB7374
:100BC0007B681B699B68BB603B7AC3F34103DBB264
:100BD000022B09D0032B04D0012B02D00323FB737B
:100BE00005E00223FB7302E00123FB7300BFFB7BE4
:100BF00018461437BD465DF8047B704780B487B053
:100C000000AF78600023FB750023BB607B681B6925
:100C10009B683B617B689B691B68FB603B7CC3F303
:100C20004103DBB2022B04D0BB896FF30A03BB8103
:100C300005E0BB89032262F30A03BB8100BF7B6826
:100C40009B69FA681A607B7A43F001037B727B68C8
:100C50001B697A6812695168BA68D2431140BA6850
:100C60000A435A60FB7D18461C37BD465DF8047B7D
:100C7000704700BF80B487B000AF78603960002350
:100C8000FB740023FB600023BB603B685B78012B97
:100C90000FD13B681B787A6804339B0013449B6830
:100CA0007B613B681B78012202FA03F39BB23B8114
:100CB0000EE03B681B787A6814339B0013445B6832
:100CC0007B613B681B78012202FA03F39BB27B81B4
:100CD0007B691B68FB607B7BC3F3C013DBB2002B1B
:100CE00027D13B689B689BB2C3F30A039AB2BB89C6
:100CF00062F30A03BB813B68DB7803F00303DAB2DB
:100D0000BB7B62F38303BB733B68DB88DBB203F01E
:100D10000F03DAB2FB8962F38913FB81FB7B43F09B
:100D20001003FB737B7B43F080037B73FA687B6962
:100D30001A607B681B697A681269D169BA680A43CC
:100D4000DA61FB7C18461C37BD465DF8047B7047B2
:100D500080B487B000AF786039600023FB74002353
:100D6000FB600023BB603B685B78012B0FD13B68C5
:100D70001B787A6804339B0013449B687B613B6853
:100D80001B78012202FA03F39BB23B810EE03B6821
:100D90001B787A6814339B0013445B687B613B6863
:100DA0001B78012202FA03F39BB27B817B7B6FF3FA
:100DB000C7137B73FA687B691A607B681B697A6862
:100DC0001269D169BA68D2430A40DA61FB7C1846DD
:100DD0001C37BD465DF8047B704700BF80B588B006
:100DE00000AF786039600023FB770023BB610023EC
:100DF0007B6100233B613B685B78012B40F0AB805B
:100E00003B681B787A6804339B0013449B681B681B
:100E10007B613B681B787A6804339B0013449B68B2
:100E20001B693B613B685B69002B09D13B696FF330
:100E300012033B617B8A012262F3CC037B8222E0B6
:100E40003B685B69C3F312023B6962F312033B61C7
:100E50003B685A693B689B6813445A1E3B689B6811
:100E6000B2FBF3F39BB2C3F309039AB27B8A62F33A
:100E7000CC037B823B68DB78012B04D1FB7C012215
:100E800062F34613FB743B681B787A6804339B005B
:100E900013449B683A691A617B68DB78012B0AD19D
:100EA0003B681B787A6804339B0013449B683A685C
:100EB00012695A6115E03B68DB78012B11D03B6861
:100EC0005B69002B0DD03B681B78012202FA03F30B
:100ED000BB617B681B697A681269516BBA690A4306
:100EE0005A633B68DB78012B14D17B681B699B68D4
:100EF000FB60FB68C3F30D239BB203F00103002BDF
:100F000004D1FB7D43F02003FB7503E0FB7D43F040
:100F10001003FB75FB7D43F00403FB75FB7D43F081
:100F20008003FB753B681B787A6804339B0013448D
:100F30009B687A691A603B68DB78012B40F08880F7
:100F40003B68D9683B681A783B685B699BB27868F4
:100F5000FFF7C0F97CE03B681B787A6814339B008C
:100F600013445B681B687B613B681B787A681433A9
:100F70009B0013445B681B693B613B685B69002B0A
:100F80000DD13B689B68C3F312023B6962F3120305
:100F90003B617B8A012262F3CC037B821FE03B68CA
:100FA0005A693B689B6813445A1E3B689B68B2FBB6
:100FB000F3F39BB2C3F309039AB27B8A62F3CC03C7
:100FC0007B827B8AC3F3C9039BB23A68926802FBB7
:100FD00003F3C3F312023B6962F312033B613B6804
:100FE0001B787A6814339B0013445B683A691A6172
:100FF0007B68DB78012B09D13B681B787A68143356
:101000009B0013445B683A6812695A613B68DB785D
:10101000012B0CD13B685B79002B04D0FB7D43F0A6
:101020002003FB7503E0FB7D43F01003FB75FB7DA4
:1010300043F00403FB75FB7D43F08003FB753B68C5
:101040001B787A6814339B0013445B687A691A60D2
:10105000FB7F18462037BD4680BD00BF80B489B0F5
:1010600000AF786039600023FB770023BB61002369
:101070003B610023BB603B685B78012B6FD17B68D1
:101080009B697B617B691B683B617B691B69BB60FA
:101090003B685B69002B09D13B7A6FF306033B7217
:1010A000BB7A012262F3C403BB7223E03B685A6936
:1010B0003B689B689A420ED93B689A683B685A61C4
:1010C0003B689B68DBB203F07F03DAB23B7A62F3E2
:1010D00006033B7209E03B685B69DBB203F07F0308
:1010E000DAB23B7A62F306033B72BB7A012262F307
:1010F000C403BB72BA687B691A617B68DB78012B19
:1011000009D13B681B787A6804339B0013449B68C1
:101110003A6812695A61FB7C43F00403FB74FB7C60
:1011200043F08003FB743A697B691A607B68DB7863
:10113000002B75D13B685B69002B71D03B681B7835
:10114000012202FA03F3BA691343BB617B681B698E
:101150007A681269516BBA690A435A6360E03B6866
:101160001B787A6814339B0013445B681B683B61EF
:101170003B681B787A6814339B0013445B681B69D7
:10118000BB603B685B69002B0FD13B689B68DBB29F
:1011900003F07F03DAB23B7A62F306033B72BB7A59
:1011A000012262F3C403BB7212E03B689A683B6899
:1011B0005A613B689B68DBB203F07F03DAB23B7A8B
:1011C00062F306033B72BB7A012262F3C403BB7273
:1011D0003B681B787A6814339B0013445B68BA68D9
:1011E0001A617B68DB78012B09D13B681B787A6830
:1011F00014339B0013445B683A6812695A61FB7CA4
:1012000043F00403FB74FB7C43F08003FB743B68F6
:101210001B787A6814339B0013445B683A691A6040
:10122000FB7F18462437BD465DF8047B704700BF3E
:1012300080B487B000AF786039600023FB7500236D
:10124000FB603B685B78012B1CD13B681B787A689C
:1012500004339B0013449B683B613B691B68FB6044
:10126000FB7BC3F3C013DBB2002B03D0FB7B43F04B
:101270004003FB73BB7B43F02003BB73FA683B69FD
:101280001A6011E03B681B787A6814339B001344A2
:101290005B683B613B691B68FB60BB7B43F02003E1
:1012A000BB73FA683B691A60FB7D18461C37BD4664
:1012B0005DF8047B704700BF80B487B000AF7860F2
:1012C00039600023FB740023FB603B685B78012BD3
:1012D00008D13B681B787A6804339B0013449B68F1
:1012E0007B6107E03B681B787A6814339B001344EA
:1012F0005B687B617B691B68FB60BB7B6FF345139D
:10130000BB733B68DB78032B03D03B68DB78022B95
:1013100003D1FB7B43F01003FB73FA687B691A600F
:10132000FB7C18461C37BD465DF8047B704700BF48
:1013300080B485B000AF78607B681B699B69FB60F7
:101340007B681B69DB69FA681340FB60FB681B0C58
:1013500018461437BD465DF8047B704780B485B0ED
:1013600000AF78600B46FB70FB787A6814339B0003
:1013700013445B689B68FB607B681B695B69FA6868
:101380001340FB60FB6818461437BD465DF8047BCC
:10139000704700BF80B485B000AF78607B681B6980
:1013A0009B69FB607B681B69DB69FA681340FB6023
:1013B000FB689BB218461437BD465DF8047B704746
:1013C00080B487B000AF786000233B61FB7C43F0C2
:1013D000C003FB74BB7C012262F3C403BB743B7C7F
:1013E000182262F306033B747B685B6D3A691A61ED
:1013F0007B68DB78012B16D10023FB607B685B6D7B
:101400007A6802F2CC525A617B685B6D1B68FB60A4
:10141000FB7B43F08003FB734FF08023FB607B6812
:101420005B6DFA681A601C37BD465DF8047B704737
:1014300080B400AF034B05221A70BD465DF8047BF3
:10144000704700BF0000002080B483B000AF0346A7
:10145000FB71044B05221A700C37BD465DF8047B06
:10146000704700BF0000002080B400AF034B06228D
:101470001A70BD465DF8047B704700BF0000002075
:1014800080B400AF034B05221A70BD465DF8047BA3
:10149000704700BF0000002080B400AF034B05225E
:1014A0001A70BD465DF8047B704700BF0000002045
:1014B00080B400AF034B05221A70BD465DF8047B73
:1014C000704700BF0000002080B400AF034B05222E
:1014D0001A70BD465DF8047B704700BF0000002015
:1014E00080B500AF364B4CF24F325A60344B53222A
:1014F0001A80334B00221A81314B00225A80314826
:101500002F4903F0D1FE2F48012103F037FF2D486A
:101510000121012204F0BEF92A48012103F04EFF07
:10152000274B4EF65F225A60254B06221A80244B29
:1015300000221A81224B00225A80214B00229A72EB
:1015400021481F4903F0B0FE204B60221A801F4B38
:1015500001225A801D4B00229A801C4B47F23052C8
:101560009A601A4B00229A81184B0022DA81174B9D
:101570004FF480721A82154B00225A821248134986
:1015800003F03CFF1048114903F0B2FF0E480F4929
:1015900004F036F80C480D4904F0B8F80A48012167
:1015A00004F0C6F90848012104F04EF9064801216B
:1015B000012204F06FF90448012103F0FFFE80BD11
:1015C0005C0100200004004000040140680100208C
:1015D00080B485B000AF786087ED000A7B6807EEC5
:1015E000903AB8EE677AD7ED007A67EE277AFCEE8C
:1015F000E77A17EE903ABB600023FB6002E0FB68DD
:101600000133FB60FA68BB689A42F8D31437BD46D1
:101610005DF8047B704700BF80B582B000AF01F079
:101620003DFA134B7B60134B3B6007E03B681A1D90
:101630003A607A68111D796012681A603A680E4B38
:101640009A42F3D30D480E494FF000028842B8BFCA
:1016500040F8042BFFF6FAAFDFF82800016841F4E8
:101660007001016000F03CFA0837BD4680BD00BF44
:101670002862000800000020200100202001002036
:101680007812002088ED00E080B400AFFEE700BFD4
:1016900080B584B000AFF8607A603B600B46FB72A7
:1016A000F86801F0FDFCF86800F01CF8FB683A6887
:1016B000C3F8E425FB68BA69C3F8E825FB687A68D3
:1016C000C3F8EC25FB7AF868194603F0F5FAFB68D5
:1016D000D3F8E8351B689847F86801F037FD1037F4
:1016E000BD4680BD80B483B000AF7860002318464B
:1016F0000C37BD465DF8047B704700BF80B584B0F1
:1017000000AF786007F108037868194602F058F9CD
:101710003B7A03F01F03012B0AD0022B0FD0002BC2
:1017200014D107F108037868194601F06BFD16E043
:1017300007F108037868194601F0B4FD0FE007F1DE
:1017400008037868194601F0E1FD08E03B7A23F0D0
:101750007F03DBB27868194603F036FC00BF002334
:1017600018461037BD4680BD80B584B000AF7860A4
:101770000B46FB70FB78002B45D17B6803F55D734E
:10178000FB607B6893F81131032B4FD1FB68DA695A
:10179000FB689B689A4221D9FB68DA69FB689B6801
:1017A000D21AFB68DA617B68DB78012B06D1FB6813
:1017B000DA68FB689B681A44FB68DA60FB68DA68E1
:1017C000FB689968FB68DB69994238BF0B469BB29E
:1017D000786811461A4603F0E1FC27E07B68D3F8ED
:1017E000E4351B69002B0AD07B6893F81231032B78
:1017F00005D17B68D3F8E4351B6978689847786829
:1018000003F0E0FC12E07B68D3F8E4359B69002B21
:101810000CD07B6893F81231032B07D17B68D3F887
:10182000E4359B69FA787868114698470023184692
:101830001037BD4680BD00BF80B584B000AF786072
:101840000B46FB70FB78002B6CD17B6803F58E7325
:10185000FB607B6893F81131022B56D1FB68DA6983
:10186000FB689B689A421CD9FB68DA69FB689B6835
:10187000D21AFB68DA617B68DB78012B06D1FB6842
:10188000DA68FB689B681A44FB68DA60FB68DA6810
:10189000FB68DB699BB2786811461A4603F04AFC84
:1018A00033E0FB681B6AFA689268B3FBF2F102FB53
:1018B00001F29B1A002B14D1FB681A6AFB689B6823
:1018C0009A420ED3FB681A6AFB685B6A9A4208D296
:1018D00078680021002203F02DFCFB6800225A6288
:1018E00013E07B68D3F8E435DB68002B0AD07B6813
:1018F00093F81231032B05D17B68D3F8E435DB680C
:1019000078689847786803F075FC7B6893F816311F
:10191000012B1AD1786800F01DF87B68002283F84B
:10192000162112E07B68D3F8E4355B69002B0CD0FC
:101930007B6893F81231032B07D17B68D3F8E43529
:101940005B69FA7878681146984700231846103783
:10195000BD4680BD80B483B000AF78607B681B69F2
:10196000044A12685A60002318460C37BD465DF8D9
:10197000047B70478801002080B582B000AF78609A
:10198000786800214022002303F018FA786880214B
:101990004022002303F012FA7B68012283F812210F
:1019A0007B68D3F8E8355B687A6892781046984788
:1019B000002318460837BD4680BD00BF80B582B001
:1019C00000AF78607B68D3F8E8351B6998477B687F
:1019D00093F813217B6883F812217B68032283F834
:1019E0001221002318460837BD4680BD80B582B05D
:1019F00000AF78607B6893F812217B6883F813212D
:101A00007B68042283F812217B68D3F8E835DB6811
:101A10009847002318460837BD4680BD80B582B080
:101A200000AF78607B68D3F8E435DB69002B05D024
:101A30007B68D3F8E435DB6978689847002318465B
:101A40000837BD4680BD00BF80B582B000AF78606A
:101A50000B46FB707B68D3F8E4351B68FA7878682E
:101A6000114698477B68D3F8E8359B689847002370
:101A700018460837BD4680BD80B582B000AF78609B
:101A80000B46FB707B68D3F8E4355B68FA787868BE
:101A900011469847002318460837BD4680BD00BF51
:101AA00080B582B000AF78607B68D3F8E4351B6AFC
:101AB00078689847002318460837BD4680BD00BFA8
:101AC00080B582B000AF78607B68D3F8E4355B6A9C
:101AD00078689847002318460837BD4680BD00BF88
:101AE00080B500AF00F0AEFD00F036FC03F018F852
:101AF000FFF7F6FC03F096FB01F082FA00F034FDEC
:101B000000F08CFD0346062B05D106484FF48041BA
:101B100000F044FEF4E703484FF4804100F04CFE2F
:101B2000EEE700BF000C024080B483B000AF7860E5
:101B30000B46FB70FB78002B06D0094B084A116B53
:101B40007A680A431A6306E0054B054A116B7A6806
:101B5000D2430A401A630C37BD465DF8047B7047D8
:101B60000038024080B483B000AF78600B46FB7051
:101B7000FB78002B06D0094B084A516B7A680A4360
:101B80005A6306E0054B054A516B7A68D2430A4016
:101B90005A630C37BD465DF8047B7047003802403D
:101BA00080B483B000AF78600B46FB70FB78002BED
:101BB00006D0094B084A116C7A680A431A6406E099
:101BC000054B054A116C7A68D2430A401A640C37F7
:101BD000BD465DF8047B70470038024080B483B096
:101BE00000AF78600B46FB70FB78002B06D0094BEA
:101BF000084A516C7A680A435A6406E0054B054A64
:101C0000516C7A68D2430A405A640C37BD465DF87D
:101C1000047B70470038024080B400AFBD465DF8D9
:101C2000047B704780B400AFFEE700BF80B400AF14
:101C3000FEE700BF80B400AFFEE700BF80B400AF96
:101C4000FEE700BF80B400AFBD465DF8047B70477F
:101C500080B400AFBD465DF8047B704780B400AF30
:101C6000BD465DF8047B704780B400AFBD465DF8AB
:101C7000047B704780B500AF1348012103F02EFEAE
:101C80000346002B1ED0114B1B881A46531C99B2D9
:101C90000E4B19800E4BA3FB0213D9080B469B0079
:101CA0000B445B00D31A9BB2002B04D109484FF4BC
:101CB000005100F08FFD084800F006FB02480121AA
:101CC00003F036FE80BD00BF00040040220100206A
:101CD000CDCCCCCC000C0240002001400000000024
:101CE000B0B500AF5048514901F032F90346002B1E
:101CF00000F095804E4B1B889BB2184603F07AFF8C
:101D000002460B461046194645A3D3E9002303F0CB
:101D1000D7FF02460B461046194604F003FA024666
:101D2000444B1A60424B5B889BB2184603F062FF3B
:101D300002460B461046194639A3D3E9002303F0A7
:101D4000BFFF02460B461046194604F0EBF9024667
:101D5000394B1A60364B9B889BB2184603F04AFFFA
:101D600002460B46104619462DA3D3E9002303F083
:101D7000A7FF02460B46104619464FF000022F4BB4
:101D800003F09EFF02460B46104619464FF0000234
:101D90002B4B03F0E1FD02460B46104619464FF06F
:101DA0000002284B04F0B6F802460B4610461946CE
:101DB0004FF00002244B03F0D1FD02460B461046C3
:101DC000194604F0AFF90246204B1A60204B4FF041
:101DD000FA321A601E4B00225A60164B1A681C4BCE
:101DE0009A60154B1A681A4BDA60184B1A68184B30
:101DF0001A61174B4FF06F325A61164A144B144652
:101E00001D460FCD0FC495E8030084E80300114878
:101E1000182100F0F7FD04480F4901F031F8B0BD7A
:101E2000894160E5D0A2473F106402402080001045
:101E3000540100208C010020A801002000408F40A8
:101E400000C087400000044000003940A401002089
:101E5000DC010020C401002020000010AFF300804E
:101E600080B500AF012002F0FFFD0346002B19D022
:101E70000D484FF4004100F0ADFC0C4B1B780A33C9
:101E8000DAB20A4B1A70094B1B78642B02D9074B44
:101E900000221A70C8209FED060AFFF799FB012067
:101EA00002F006FE80BD00BF000C024020010020B1
:101EB0005F554A460000000080B500AF424801214E
:101EC00003F00CFD0346002B78D0404B5B6803F019
:101ED0000103002B05D03E484FF4805100F05EFC1A
:101EE00004E03B484FF4805100F066FC394B1B780E
:101EF000184603F07FFE02460B461046194630A3F3
:101F0000D3E9002303F0DCFE02460B4610461946D7
:101F100004F0E8F803462C48194603F05DFC2D4B0D
:101F20001B78184603F066FE02460B46104619461B
:101F300023A3D3E9002303F0C3FE02460B46104659
:101F4000194604F0CFF803461F48194603F052FC27
:101F5000204B1B78184603F04DFE02460B461046F8
:101F6000194617A3D3E9002303F0AAFE02460B4645
:101F70001046194604F0B6F803461348194603F014
:101F800047FC144B1B78184603F034FE02460B4600
:101F9000104619460AA3D3E9002303F091FE024636
:101FA0000B461046194604F09DF8034606481946AC
:101FB00003F03CFC0448012103F0BAFC80BD00BFE3
:101FC00052B81E85EBBF824000040140AC010020E6
:101FD000000C02402001002080B485B000AF786082
:101FE00039600023FB600023FB727B685B68FB6049
:101FF000FB6823F0407323F48073FB603B681B791C
:102000001A023B681B681343FA681343FB607B6842
:10201000FA685A607B689B68FB60FA68174B13404C
:10202000FB603B681A693B68DB681A433B689B6846
:102030001A433B685B795B001343FA681343FB6008
:102040007B68FA689A607B68DB6AFB60FB6823F454
:102050007003FB603B681B7D013BDAB2FB7A1343E4
:10206000FB72FB7A1B05FA681343FB607B68FA6816
:10207000DA621437BD465DF8047B7047FDF7FFC098
:1020800080B485B000AF78600023FB600E4B5B68C6
:10209000FB60FA680D4B1340FB607B681A687B6835
:1020A0005B681A437B689B681A437B68DB68134351
:1020B000FA681343FB60044BFA685A601437BD4654
:1020C0005DF8047B704700BF00230140E030FCFF57
:1020D00080B483B000AF78600B46FB70FB78002BB8
:1020E00006D07B689B6843F001027B689A6005E03C
:1020F0007B689B6823F001027B689A600C37BD46C1
:102100005DF8047B704700BF80B483B000AF034626
:10211000FB71FB79002B06D0084B084A526842F449
:1021200000025A6005E0054B044A526822F400029E
:102130005A600C37BD465DF8047B704700230140B0
:1021400080B485B000AF7860F970BA707B700023FE
:10215000FB600023BB60FB78092B23D97B68DB681D
:10216000FB60FB78A3F10A0213465B0013440722CD
:1021700002FA03F3BB60BB68DB43FA681340FB6001
:102180007978FB78A3F10A0213465B00134401FA45
:1021900003F3BB60FA68BB681343FB607B68FA68B3
:1021A000DA601EE07B681B69FB60FA7813465B000F
:1021B0001344072202FA03F3BB60BB68DB43FA68EF
:1021C0001340FB607978FA7813465B00134401FAF8
:1021D00003F3BB60FA68BB681343FB607B68FA6873
:1021E0001A61BB78062B21D87B685B6BFB60BB78E0
:1021F0005A1E13469B0013441F2202FA03F3BB60CE
:10220000BB68DB43FA681340FB60F978BB785A1E61
:1022100013469B00134401FA03F3BB60FA68BB68E2
:102220001343FB607B68FA685A6347E0BB780C2B6A
:1022300021D87B681B6BFB60BB78DA1F13469B00C1
:1022400013441F2202FA03F3BB60BB68DB43FA6846
:102250001340FB60F978BB78DA1F13469B001344E8
:1022600001FA03F3BB60FA68BB681343FB607B6849
:10227000FA681A6322E07B68DB6AFB60BB78A3F133
:102280000D0213469B0013441F2202FA03F3BB60A6
:10229000BB68DB43FA681340FB60F978BB78A3F1B5
:1022A0000D0213469B00134401FA03F3BB60FA6866
:1022B000BB681343FB607B68FA68DA621437BD467B
:1022C0005DF8047B704700BF80B483B000AF7860D6
:1022D0007B689B6843F080427B689A600C37BD4600
:1022E0005DF8047B704700BF80B483B000AF7860B6
:1022F0000B46FB70FB78002B06D07B689B6843F491
:1023000080727B689A6005E07B689B6823F480722A
:102310007B689A600C37BD465DF8047B704700BF50
:1023200080B483B000AF78600B46FB70FB78002B65
:1023300006D07B689B6843F400727B689A6005E076
:102340007B689B6823F400727B689A600C37BD46FB
:102350005DF8047B704700BF80B500AF3A4B4FF487
:1023600070421A60384B01221A71374B00229A7161
:10237000354B02225A713548334900F081F9324B0E
:1023800030221A60304B03221A712F4B0022DA716F
:102390002F482D4900F074F92B4BFF221A602A4B6D
:1023A00001221A71284B00229A71274B02225A717E
:1023B0002648254900F064F9234B0F221A60224B6E
:1023C00001221A71204B00229A711F4B02225A716E
:1023D0001F481D4900F054F91B4B01221A601A4B8B
:1023E00000221A71184B0022DA71174B02225A711F
:1023F0001848154900F044F900200021FDF7C4FEFB
:10240000114B4FF470721A600F4B02221A710E4B6F
:1024100003225A710E480C4900F032F90C4806218B
:10242000032200F0E9F90A480721032200F0E4F949
:1024300007480821032200F0DFF90548092103229B
:1024400000F0DAF980BD00BFF4010020000C02406A
:10245000000802400000024080B483B000AF034691
:102460003960FB713B6812221A80034B18460C3707
:10247000BD465DF8047B70476C00002080B483B0DB
:1024800000AF03463960FB713B6804221A80034B9E
:1024900018460C37BD465DF8047B70478C00002061
:1024A00080B582B000AF03463960FB71044805492E
:1024B0003A6801F0DFFA034B18460837BD4680BD85
:1024C000C4610008A408002080B582B000AF0346B4
:1024D0003960FB71044805493A6801F0CBFA034BB7
:1024E00018460837BD4680BDE8610008A4080020F2
:1024F00080B582B000AF03463960FB7104480549DE
:102500003A6801F0B7FA034B18460837BD4680BD5C
:10251000FC610008A408002080B582B000AF03462B
:102520003960FB71044805493A6801F0A3FA034B8E
:1025300018460837BD4680BD0C620008A40800207C
:1025400080B582B000AF03463960FB71044805498D
:102550003A6801F08FFA034B18460837BD4680BD34
:1025600018620008A408002080B582B002AF0C4BAE
:1025700000930C4801210C4A0C4BFFF789F80C4BD7
:1025800000221A600B4B00221A600B4B00221A60CB
:102590000A4B01221A7000231846BD4680BD00BFB9
:1025A000040000208802002050000020F4000020D9
:1025B000FC01002004020020000200202401002071
:1025C00080B483B000AF0346FB71114B1B687F2BB7
:1025D00017D8104B1B687F2B02D90E4B00221A60B4
:1025E0000C4B1B680C4AF979D1540A4B1B685A1CD6
:1025F000084B1A60064B1B685A1C054B1A600023D7
:1026000000E0022318460C37BD465DF8047B704796
:1026100000020020FC0100200802002080B400AF6E
:10262000064B1B78002B02D0054B1B7800E00123E2
:102630001846BD465DF8047B704700BF24010020AA
:102640000000002080B500AF1F200121FFF76CFAC9
:102650004FF480000121FFF767FA02200121FFF704
:102660009FFA4FF480400121FFF7B8FA02200121C0
:10267000FFF7B4FA4FF480700121FFF7AFFA80BD85
:1026800080B487B000AF7860396000237B6100239D
:102690003B610023FB6000237B6176E07B690122C4
:1026A00002FA03F33B613B681A683B691340FB6025
:1026B000FA683B699A4265D17B681A687B695B005E
:1026C000032101FA03F3DB431A407B681A607B683D
:1026D0001A683B681B7919467B695B0001FA03F3B2
:1026E0001A437B681A603B681B79012B03D03B6857
:1026F0001B79022B2ED17B689A687B695B000321D2
:1027000001FA03F3DB431A407B689A607B689A689E
:102710003B685B7919467B695B0001FA03F31A4356
:102720007B689A607B685A687B699BB2012101FAD9
:1027300003F3DB431A407B685A607B685A683B6846
:102740009B7919467B699BB201FA03F39BB21A434A
:102750007B685A607B68DA687B699BB25B00032107
:1027600001FA03F3DB431A407B68DA607B68DA68BE
:102770003B68DB7919467B695B0001FA03F31A4376
:102780007B68DA607B6901337B617B690F2B85D9BC
:102790001C37BD465DF8047B704700BF80B483B032
:1027A00000AF78600B467B807B687A881A830C3791
:1027B000BD465DF8047B704780B483B000AF78609D
:1027C0000B467B807B687A885A830C37BD465DF860
:1027D000047B704780B483B000AF78600B467B8089
:1027E0007B685A697B885A407B685A610C37BD46C2
:1027F0005DF8047B704700BF80B485B000AF78609F
:1028000013460A467A807B700023FB600023BB607E
:102810007A787B8803F007039B0002FA03F3FB60DE
:102820007B88DB089BB21A467B88DB089BB2194683
:102830007B68083153F821107B8803F007039B0065
:102840000F2000FA03F3DB4319407B68083243F89A
:1028500022107B88DB089BB21A467B68083253F84B
:102860002220FB681343BB607B88DB089BB21A46BF
:102870007B680832B96843F822101437BD465DF80A
:10288000047B704780B400AF00231846BD465DF856
:10289000047B704780B400AF00231846BD465DF846
:1028A000047B704780B485B000AFF860B9607A608F
:1028B000FB68232B00F29B8001A252F823F000BF9B
:1028C000EF290008EF290008EF290008EF29000888
:1028D000EF290008EF290008EF290008EF29000878
:1028E000EF290008EF290008EF290008EF29000868
:1028F000EF290008EF290008EF290008EF29000858
:10290000EF290008EF290008EF290008EF29000847
:10291000EF290008EF290008EF290008EF29000837
:10292000EF290008EF290008EF290008EF29000827
:10293000EF290008EF290008EF290008EF29000817
:10294000512900089B290008EF290008EF290008F9
:10295000BB681B781A46BB6801331B781B021A43FD
:10296000BB6802331B781B041A43BB6803331B7814
:102970001B0613431A46224B1A60BB681A79204B78
:102980001A71BB685A791E4B5A71BB689A791C4BF5
:102990009A711B4B0122DA712AE0194B1B68DAB2DB
:1029A000BB681A70BB680133154A1268120AD2B2AA
:1029B0001A70BB680233124A1268120CD2B21A7033
:1029C000BB6803330E4A1268120ED2B21A70BB688B
:1029D00004330B4A12791A70BB680533084A5279DE
:1029E0001A70BB680633064A92791A7000E000BF7D
:1029F000002318461437BD465DF8047B704700BFBE
:102A00009000002080B485B000AF7860396000236A
:102A1000FB6017E0114B1B687968FA680A4411786B
:102A20000F4AD1540D4B1B685A1C0C4B1A600B4BB0
:102A30001B68B3F5006F02D3084B00221A60FB68D5
:102A40000133FB60FA683B689A42E3D300231846DF
:102A50001437BD465DF8047B704700BF3C01002081
:102A6000300A002080B584B000AF78603960002360
:102A7000FB6009E07A68FB6813441B781846FFF78F
:102A80009FFDFB680133FB60FA683B689A42F1D313
:102A9000002318461037BD4680BD00BF80B500AF8B
:102AA000154B154AD2F8882042F47002C3F88820EA
:102AB000124B124A126842F001021A600F4B0022B8
:102AC0009A600E4A0D4B1B6823F0847323F4803305
:102AD00013600A4B0A4A5A60084B084A126822F4EB
:102AE00080221A60054B0022DA6000F00BF8024BDE
:102AF0004FF000629A6080BD00ED00E000380240B7
:102B00001030002480B483B000AF00237B6000232A
:102B10003B60354B344A126842F480321A60324BC3
:102B20001B6803F400333B607B6801337B603B68C8
:102B3000002B03D17B68B3F5A06FF0D12A4B1B6843
:102B400003F40033002B02D001233B6001E000239B
:102B50003B603B68012B42D1234B234A126C42F06D
:102B600080521A64214B214A126842F480421A6052
:102B70001D4B1D4A92689A601B4B1B4A926842F497
:102B800000429A60184B184A926842F4A0529A6028
:102B9000154B174A5A60144B134A126842F0807260
:102BA0001A6000BF104B1B6803F00073002BF9D0B4
:102BB000104B40F205621A600B4B0B4A926822F0F0
:102BC00003029A60084B084A926842F002029A6037
:102BD00000BF054B9B6803F00C03082BF9D10C37A1
:102BE000BD465DF8047B704700380240007000402D
:102BF00008544007003C024080B483B000AF7860C6
:102C00007B681B6823F001027B681A607B680022E6
:102C10001A607B6800225A607B6800229A607B6899
:102C20000022DA607B6800221A617B6821225A61E7
:102C30007A68454B9A4203D1444B3D229A607EE02C
:102C40007A68434B9A4204D1404B4FF474629A60C5
:102C500075E07A683F4B9A4204D13C4B4FF47412B2
:102C60009A606CE07A683C4B9A4204D1374B4FF043
:102C700074629A6063E07A68384B9A4203D1334BAE
:102C8000374ADA605BE07A68364B9A4203D12F4BC1
:102C9000354ADA6053E07A68344B9A4203D12B4BC1
:102CA000334ADA604BE07A68324B9A4204D1274BC0
:102CB0004FF03D52DA6042E07A682F4B9A4203D1DE
:102CC0002E4B3D229A603AE07A682D4B9A4204D10D
:102CD0002A4B4FF474629A6031E07A68294B9A4229
:102CE00004D1264B4FF474129A6028E07A68264B80
:102CF0009A4204D1214B4FF074629A601FE07A68C7
:102D0000224B9A4203D11D4B154ADA6017E07A68CC
:102D10001F4B9A4203D1194B134ADA600FE07A68CD
:102D20001C4B9A4203D1154B114ADA6007E07A68CE
:102D3000194B9A4203D1114B4FF03D52DA600C37D8
:102D4000BD465DF8047B70471060024000600240A1
:102D500028600240406002405860024070600240BB
:102D60003D00002088600240400F0020A06002402B
:102D700000003D20B8600240106402400064024040
:102D8000286402404064024058640240706402407B
:102D900088640240A0640240B864024080B485B0F8
:102DA00000AF786039600023FB607B681B68FB60C4
:102DB000FA68244B1340FB603B681A683B68DB6889
:102DC0001A433B685B691A433B689B691A433B683B
:102DD000DB691A433B681B6A1A433B685B6A1A4308
:102DE0003B689B6A1A433B685B6B1A433B689B6B6F
:102DF0001343FA681343FB607B68FA681A607B68C8
:102E00005B69FB60FB6823F00703FB603B68DA6AE1
:102E10003B681B6B1343FA681343FB607B68FA68DB
:102E20005A613B681A697B685A603B685A687B68DC
:102E30009A603B689A687B68DA601437BD465DF833
:102E4000047B70473F801CF080B483B000AF786093
:102E50000B46FB70FB78002B06D07B681B6843F0A9
:102E600001027B681A6005E07B681B6823F00102A1
:102E70007B681A600C37BD465DF8047B704700BF65
:102E800080B485B000AF786039607A68104B9A42A0
:102E900002D8104BFB6001E00F4BFB603B6803F076
:102EA0000053002B07D03B6823F0F02323F082135C
:102EB000FA68D36006E03B6823F0F02323F0821326
:102EC000FA6893601437BD465DF8047B704700BF15
:102ED0000F640240006002400064024080B485B08C
:102EE00000AFF860B9601346FB71BB6803F0800364
:102EF000002B0FD0FB79002B06D0FB685B6943F0F9
:102F00008002FB685A6105E0FB685B6923F0800280
:102F1000FB685A61BB68802B14D0FB79002B08D06A
:102F2000FB681A68BB6803F01E031A43FB681A604B
:102F300008E0FB681A68BB6803F01E03DB431A4015
:102F4000FB681A601437BD465DF8047B704700BF0C
:102F500080B487B000AF786039600023FB75002330
:102F6000FB600023BB607A68224B9A4202D8224B56
:102F70003B6101E0214B3B613B6823F0F02323F0F0
:102F8000C313002B0AD03B68DB0A03F01E03FB606F
:102F90007B681A68FB681340BB6004E07B685B6970
:102FA00003F08003BB603B6803F00053002B03D0A9
:102FB0003B695B68FB6002E03B691B68FB60FB6888
:102FC00023F0F02323F08213FB60FA683B68134080
:102FD000002B05D0BB68002B02D00123FB7501E05C
:102FE0000023FB75FB7D18461C37BD465DF8047B4E
:102FF000704700BF0F64024000600240006402405E
:1030000080B500AF234B00221A60224B00225A6089
:10301000204B4FF480429A601E4B0022DA601D481C
:10302000FFF72EF81C4B00221A601B4B01221A716D
:10303000194B00225A71184B00229A60164B00223D
:103040001A61154B03221A7514481349FEF7C4FF81
:1030500012480E2101220523FFF772F80F480F21B5
:1030600002220523FFF76CF80C48102103220723E6
:10307000FFF766F809480121FFF752F90120FFF731
:1030800043F806480121FFF72FF904480121FFF713
:103090001FF880BD7C0800208C0800200020014023
:1030A00080B584B000AF786001200121FEF73CFDBF
:1030B0004FF4C053BB6003237B7302233B73002395
:1030C000BB730023FB7307F108031F481946FFF782
:1030D000D7FA1D480B210A22FFF78EFB1A480C2154
:1030E0000A22FFF789FB4FF40073BB6003237B7355
:1030F00000233B730123BB730023FB7307F1080319
:1031000011481946FFF7BCFA4FF48063BB600123F6
:10311000BB730123FB7303237B7307F108030A4886
:103120001946FFF7ADFA08480A210A22FFF764FBA7
:103130004FF480400121FEF751FD80200121FEF770
:1031400011FD1037BD4680BD0000024080B584B03F
:1031500000AF78604FF4C06001F03EFD43233B7345
:1031600001237B730323BB730123FB7307F10C0360
:10317000184601F043FD1037BD4680BD80B485B0D0
:1031800000AF78600023FB607A6813461B019B1A2E
:10319000DB001A460A4BA3FB0213D21A520813444F
:1031A0009B08BB60FB680133FB60FA68BB689A420E
:1031B00000D900E0F6E71437BD465DF8047B7047A0
:1031C0002549922480B582B000AF78607B684FF4C7
:1031D0007A7202FB03F31846FFF7D0FF0837BD46AB
:1031E00080BD00BF80B500AF4FF4802001F060FCCF
:1031F00080BD00BF80B500AF014800F091FC80BDEC
:103200008802002080B584B000AF78603960002368
:10321000FB733B685B78092B39D801A252F823F085
:1032200071320008853200088F3200087B320008B6
:103230008F32000853320008493200088F320008EC
:10324000673200085D3200087868396800F036F9A6
:1032500022E07868396800F00DFA1DE07868396876
:1032600000F046FA18E07868396800F0BBFA13E01D
:103270007868396800F0E6FA0EE07868396800F09E
:103280000BFB09E07868396800F072FB04E07868AD
:10329000396800F0DBFB00BFFB7B18461037BD46EA
:1032A00080BD00BF80B584B000AF78603960002376
:1032B000FB737B6893F81231032B1CD13B689B880E
:1032C000DBB2012B11D87B68D3F8E4359B687868B2
:1032D000396898473B68DB88002B0BD1FB7B002BC0
:1032E00008D1786801F06EFF0AE07868396800F06C
:1032F000ADFB05E004E07868396800F0A7FB00BF8B
:10330000FB7B18461037BD4680BD00BF80B584B03A
:1033100000AF786039600023FB733B689B88BB7308
:103320003B685B78012B39D0032B02D0002B6BD08C
:10333000BCE07B6893F81231022B02D0032B0DD036
:1033400026E0BB7B002B08D0BB7B802B05D0BB7B52
:103350007868194601F038FE1FE01EE03B685B8884
:10336000002B0AD1BB7B002B07D0BB7B802B04D06A
:10337000BB7B7868194601F027FE7B68D3F8E435FB
:103380009B68786839689847786801F01BFF04E00B
:103390007868396800F05AFB00BF87E07B6893F8D3
:1033A0001231022B02D0032B0DD027E0BB7B002B68
:1033B00008D0BB7B802B05D0BB7B7868194601F019
:1033C00003FE20E01FE03B685B88002B15D1BB7B30
:1033D000002B0ED0BB7B802B0BD0BB7B78681946B3
:1033E00001F02EFE7B68D3F8E4359B687868396875
:1033F0009847786801F0E6FE05E004E078683968EF
:1034000000F024FB00BF51E07B6893F81231022BDF
:1034100002D0032B0DD043E0BB7B002B08D0BB7B3D
:10342000802B05D0BB7B7868194601F0CDFD3CE0D0
:103430003BE0BB7B5BB2002B15DABB7B03F07F026A
:10344000796813469B001344DB000B4403F58C732F
:103450009B79002B03D0184B01221A601AE0164BFF
:1034600000221A6016E0BB7B5BB2002B12DBBA7B3A
:10347000796813469B001344DB000B4403F55C732F
:103480009B79002B03D00C4B01221A6002E00A4BFF
:1034900000221A6078680849022201F02BFE04E03D
:1034A0007868396800F0D2FA00BF00BFFB7B18468D
:1034B0001037BD4680BD00BF2801002080B584B014
:1034C00000AF786039603B685B881B0A9BB2013BA8
:1034D000062B00F2B18001A252F823F0F934000863
:1034E0002B350008553500083936000839360008F4
:1034F000253600082F3600087B68D3F8EC351B68AA
:103500007A68917807F10A02084611469847F860F0
:103510003B68DB88402B04D07B6893F81231012B89
:1035200002D108237B818CE08BE07B68D3F8E43503
:103530009B6A7A68917807F10A0208461146984713
:10354000F860FB68013302221A707B68FA68C3F8DE
:10355000F02576E03B685B88DBB2052B5CD801A2E6
:1035600052F823F07D35000897350008B135000882
:10357000CB350008E5350008FF3500087B68D3F837
:10358000EC355B687A68917807F10A0208461146C3
:103590009847F86045E07B68D3F8EC359B687A681B
:1035A000917807F10A02084611469847F86038E01A
:1035B0007B68D3F8EC35DB687A68917807F10A020A
:1035C000084611469847F8602BE07B68D3F8EC3545
:1035D0001B697A68917807F10A02084611469847F4
:1035E000F8601EE07B68D3F8EC355B697A68917807
:1035F00007F10A02084611469847F86011E07B6817
:10360000D3F8EC359B697A68917807F10A0208468D
:1036100011469847F86004E07868396800F016FAB7
:1036200024E00EE07868396800F010FA1EE078684F
:10363000396800F00BFA19E07868396800F006FA8A
:1036400014E07B89002B11D03B68DB88002B0DD068
:103650003B68DA887B899A4238BF13469BB27B81EC
:103660007B897868F9681A4601F044FD1037BD4639
:1036700080BD00BF80B584B000AF786039603B6822
:103680009B88002B2DD13B68DB88002B29D13B6820
:103690005B88DBB203F07F03FB737B6893F8123126
:1036A000032B04D17868396800F0D0F918E07B6802
:1036B000FA7B83F81421FB7B7868194601F0FCFC47
:1036C000786801F07FFDFB7B002B04D07B68022231
:1036D00083F8122104E07B68012283F8122104E0C0
:1036E00003E07868396800F0B1F91037BD4680BD55
:1036F00080B582B000AF786039603B685B88DAB231
:10370000374B1A70364B1B78012B04D9786839680F
:1037100000F09CF960E07B6893F81231022B02D034
:10372000032B1BD053E02E4B1B78002B12D02C4BBD
:103730001A787B6883F810217B68032283F81221B2
:10374000274B1B7878681946FEF77EF9786801F0F8
:1037500039FD41E0786801F035FD3DE0204B1B78F4
:10376000002B12D17B68022283F812211C4B1A789D
:103770007B6883F810211A4B1B7878681946FEF78E
:103780007BF9786801F01EFD20E07B6893F810213A
:10379000134B1B789A4215D07B6893F810317868E8
:1037A0001946FEF769F90E4B1A787B6883F81021E9
:1037B0000B4B1B7878681946FEF746F9786801F0DC
:1037C00001FD03E0786801F0FDFC05E004E07868A5
:1037D000396800F03BF900BF0837BD4680BD00BF27
:1037E0003401002080B582B000AF786039603B685A
:1037F000DB88012B04D07868396800F027F91BE0DA
:103800007B6893F81231022B02D0032B06D00EE016
:1038100078680B49012201F06DFC0DE07B6803F52F
:10382000887378681946012201F064FC04E0786826
:10383000396800F00BF900BF0837BD4680BD00BFF6
:103840002C01002080B582B000AF786039607B68C1
:1038500093F81231023B012B13D80E4B01221A6050
:103860007B68D3F81831002B05D00A4B1B6843F056
:103870000202084B1A6078680649022201F03AFCFD
:1038800004E07868396800F0E1F800BF0837BD4609
:1038900080BD00BF3001002080B584B000AF7860EB
:1038A00039600023FB733B685B88012B0ED17B687A
:1038B0000122C3F818217B68D3F8E4359B68786847
:1038C00039689847786801F07DFC4BE03B685B887D
:1038D000022B47D13B689B88DBB2002B42D17B682F
:1038E0001B695B68BB603B689B881B0A9BB2FB73D0
:1038F000FB7B013B042B2BD801A252F823F000BF25
:1039000015390008213900082D3900083939000817
:10391000453900083B7A012262F306133B7217E037
:103920003B7A022262F306133B7211E03B7A0322D8
:1039300062F306133B720BE03B7A042262F3061338
:103940003B7205E03B7A052262F306133B7200BF2F
:10395000064BBA681A607B68012283F816217868E2
:1039600001F030FC1037BD4680BD00BF880100204B
:1039700080B582B000AF786039607B6893F812310F
:10398000023B012B13D83B685B88012B0ED17B686F
:103990000022C3F818217B68D3F8E4359B68786867
:1039A00039689847786801F00DFC05E004E0786814
:1039B000396800F04BF800BF0837BD4680BD00BF36
:1039C00080B483B000AF786039607B6893F8CC2511
:1039D0003B681A707B6893F8CD253B685A707B680A
:1039E00093F8CE351A467B6893F8CF351B029BB20D
:1039F00013449AB23B685A807B6893F8D0351A46D4
:103A00007B6893F8D1351B029BB213449AB23B6892
:103A10009A807B6893F8D2351A467B6893F8D33541
:103A20001B029BB213449AB23B68DA803B68DB8886
:103A30001A467B68C3F840217B68012283F8112174
:103A40000C37BD465DF8047B704700BF80B582B07F
:103A500000AF786039607868802101F0B5FA786845
:103A6000002101F0B1FA7868FDF7AAFC0837BD46DD
:103A700080BD00BF80B586B000AFF860B9607A60E5
:103A80000023FB75FB68002B2FD0F86800F030F89E
:103A9000034601339BB25B009AB27B681A80FB7DC0
:103AA0005A1CFA75BA6813447A681288D2B21A702E
:103AB000FB7D5A1CFA75BA68134403221A7010E091
:103AC000FB7D5A1CFA75BA681A44FB68591CF960E8
:103AD0001B781370FB7D5A1CFA75BA6813440022D8
:103AE0001A70FB681B78002BEAD11837BD4680BDE1
:103AF00080B485B000AF78600023FB7305E0FB7BEA
:103B00000133FB737B6801337B607B681B78002B80
:103B1000F5D1FB7B18461437BD465DF8047B704732
:103B200080B586B000AF786000237B617868FCF7D1
:103B30006FFE0346002B00F09C807868FCF77AFE4D
:103B400003463B613B69002B01D1002392E0BB7C23
:103B5000C3F3C003DBB2002B06D0786800F0FAF99B
:103B600003467A6913437B61BB7CC3F38003DBB2FA
:103B7000002B06D0786800F01FF903467A691343DA
:103B80007B613B7CC3F34003DBB2002B09D00023F5
:103B9000FB603B7B43F002033B737B68DB68FA68A6
:103BA0005A61FB7CC3F3C013DBB2002B06D07868EC
:103BB00000F064F803467A6913437B617B7CC3F3AE
:103BC000C003DBB2002B06D0786800F097F80346FC
:103BD0007A6913437B613B7CC3F3C003DBB2002BE8
:103BE00006D0786800F05EFA03467A6913437B6179
:103BF0003B7CC3F30013DBB2002B06D0786800F0E7
:103C00006BFA03467A6913437B617B7CC3F3001331
:103C1000DBB2002B06D0786800F052FB03467A69CD
:103C200013437B617B7CC3F34013DBB2002B06D0D4
:103C3000786800F0DBFB03467A6913437B61BB7C49
:103C4000C3F30013DBB2002B06D0786800F00AFC47
:103C500003467A6913437B61BB7CC3F34013DBB239
:103C6000002B06D0786800F017FC03467A691343EE
:103C70007B617B6918461837BD4680BD80B586B02C
:103C800000AF78607B689B7A002B11D07B6803F5CE
:103C900086731B68FB603B7B6FF341033B733B7B8D
:103CA0006FF300033B737B68D3F80C31FA681A603A
:103CB00000233B613B7C43F001033B747B681B6941
:103CC0007A68126951683A69D2430A405A600A4BCD
:103CD0001B689B697868984700237B61FB7D43F0F4
:103CE0008003FB757B68DB687A695A61012318469B
:103CF0001837BD4680BD00BF4C00002080B586B09F
:103D000000AF78600023FB727B6893F81231FB727E
:103D1000274B1B685B69786898477B681B699B68C1
:103D2000FB6000237B617B7D43F008037B757B6830
:103D3000DB687A695A617B689B7A002B32D03B7BC7
:103D4000C3F30003DBB2012B2CD17B6893F8153150
:103D5000012B27D1FB7ADBB2032B23D100233B615C
:103D60003B7C43F001033B747B68D3F80C317A68E9
:103D7000D2F80C2111683A690A431A603B7C43F07F
:103D800002033B747B68D3F80C317A68D2F80C21BB
:103D900011683A690A431A60064B064A126942F0F2
:103DA00006021A61012318461837BD4680BD00BFC0
:103DB0004C00002000ED00E080B586B000AF7860D8
:103DC00000233B610023BB607868FDF7E3FA78616C
:103DD000B4E07B6903F00103002B00F0A9803B698C
:103DE000DBB27868194600F071FB0346BB603B7A92
:103DF000C3F30003DBB2002B32D03B69012202FA8D
:103E000003F3FB607B681B697A681269516BFA687F
:103E1000D2430A405A630023BB603B7A43F001035C
:103E20003B727A683B6904339B0013449B68BA6811
:103E30009A60474B1B685B683A69D2B27868114652
:103E400098477B68DB78012B0AD13B69002B07D1AF
:103E50007B6893F81131042B02D17868FDF7B0FA32
:103E60003B7AC3F3C003DBB2002B0DD00023BB6051
:103E70003B7A43F008033B727A683B6904339B004A
:103E800013449B68BA689A603B7AC3F30013DBB2B1
:103E9000002B0DD00023BB603B7A43F010033B7234
:103EA0007A683B6904339B0013449B68BA689A6044
:103EB0003B7AC3F38013DBB2002B0DD00023BB6031
:103EC0003B7A43F040033B727A683B6904339B00C2
:103ED00013449B68BA689A603B7AC3F34003DBB231
:103EE000002B0DD00023BB603B7A43F002033B72F2
:103EF0007A683B6904339B0013449B68BA689A60F4
:103F00003B7AC3F3C013DBB2002B11D07868396958
:103F100000F064F90023BB603B7A43F080033B72FE
:103F20007A683B6904339B0013449B68BA689A60C3
:103F30003B6901333B617B695B087B617B69002BDB
:103F40007FF447AF012318461837BD4680BD00BF38
:103F50004C00002080B586B000AF786000233B6144
:103F60000023FB607868FDF7E3F978618FE07B69F7
:103F700003F00103002B00F084803B69DBB278681A
:103F80001946FDF7EBF90346FB603B7BC3F30003E7
:103F9000DBB2002B48D00023FB603B7B43F00103E6
:103FA0003B737A683B6914339B0013445B68FA687F
:103FB0009A607B68DB78012B1FD17A683B691433E8
:103FC0009B0013445B681B69BB6079683A691346C0
:103FD0009B001344DB000B4403F55E735A68BB6817
:103FE000C3F31203D11A78683A6913469B0013444D
:103FF000DB00034403F562735960294B1B681B689F
:104000003A69D2B27868114698477B68DB78012B11
:104010000AD13B69002B07D17B6893F81131052B3E
:1040200002D17868FDF7CCF93B7BC3F34003DBB2E8
:10403000002B0DD00023FB603B7B43F002033B735E
:104040007A683B6914339B0013445B68FA689A6092
:104050003B7BC3F3C003DBB2002B12D0104B1B68B9
:104060009B68786898470023FB603B7B43F008031C
:104070003B737A683B6914339B0013445B68FA68AE
:104080009A603B6901333B617B695B087B617B69BB
:10409000002B7FF46CAF012318461837BD4680BD56
:1040A0004C00002080B584B000AF7860094B1B68DD
:1040B000DB68786898470023FB603B7B43F008038C
:1040C0003B737B68DB68FA685A6101231846103736
:1040D000BD4680BD4C00002080B586B000AF786042
:1040E00000233B613B7C43F010033B747B68DB683F
:1040F0007A68D26891693A69D2430A409A617B68CA
:10410000DB681B6AFB603B7BC3F30303DBB21A462D
:1041100013469B001344DB0003F55C737A68134479
:1041200004337B61BB7BC3F34303DBB2013B052B51
:1041300045D801A252F823F0BF41000851410008C0
:10414000BF410008BF410008BF4100089B41000873
:10415000BB89C3F30A139BB2002B1DD07B69DA68BD
:10416000BB89C3F30A139BB2786811461A46FCF761
:10417000E9F87B69DA68BB89C3F30A139BB21A4476
:104180007B69DA607B699A69BB89C3F30A139BB2C6
:104190001A447B699A6113E012E07B6803F2CC5306
:1041A000786819460822FCF7CDF87B699A69BB89C3
:1041B000C3F30A139BB21A447B699A6100E000BF03
:1041C0007B68DB687A68D26891693A690A439A61C8
:1041D000012318461837BD4680BD00BF80B586B0A4
:1041E00000AF7860396000237B610023BB603A68D0
:1041F00013469B001344DB0003F58C737A68134469
:104200000433FB60FB685A69FB689B69D31A7B61C6
:10421000FB689A687B699A4202D2FB689B687B6163
:104220007B6903339B083B617A683B6804339B00DE
:1042300013449B689B69BB602EE0FB685A69FB686E
:104240009B69D31A7B61FB689A687B699A4202D2A8
:10425000FB689B687B617B6903339B083B61FB6860
:10426000D9683B68DAB27B699BB27868FCF732F8B0
:10427000FB68DA687B691A44FB68DA60FB689A6954
:104280007B691A44FB689A617A683B6804339B0037
:1042900013449B689B69BB603B891A463B699A4201
:1042A00009D9FB689A69FB685B699A4203D2FB688B
:1042B0005B69002BC1D1012318461837BD4680BD6C
:1042C00080B58AB000AF786000233B6100233B6279
:1042D0000023FB610023BB6100237B610023FB60A3
:1042E0003B7C43F001033B747B681B697A6812696D
:1042F00051683A69D2430A405A6078680021FCF755
:10430000DDF900237B6212E07A687B6A04339B004C
:1043100013449B68FF229A607A687B6A14339B007F
:1043200013445B68FF229A607B6A01337B627B687F
:104330005B781A467B6A9A42E6D87B681B694FF025
:10434000FF329A613B8C012262F30F033B847B8C2A
:10435000012262F30F037B847B681B693A6ADA618E
:104360003B7F43F008033B773B7F43F001033B7700
:104370003B7F43F002033B777B681B69FA695A6114
:104380003B7E43F001033B763B7E43F008033B76E4
:104390003B7E43F002033B767B681B69BA691A6176
:1043A0007B681B691B687B61BB8A6FF30A13BB8246
:1043B0007B681B697A691A607868FDF701F8002349
:1043C000FB607B7B43F010037B737B68DB68FA68E0
:1043D0005A61054B1B681B6978689847012318468A
:1043E0002837BD4680BD00BF4C00002080B584B09A
:1043F00000AF78607868FCF701FC7B68DB68DB68FD
:10440000BB607868FCF7D6FB0346032B0CD17B68B6
:1044100000229A707B684FF400729A807B7A09229E
:1044200062F385037B720AE07B6801229A707B68E5
:1044300040229A807B7A052262F385037B727B6837
:10444000DB68BA68DA600023FB607B7B43F0200303
:104450007B737B68DB68FA685A6101231846103762
:10446000BD4680BD80B584B000AF78600023FB609E
:10447000084B1B68DB6978689847BB7B43F01003E7
:10448000BB737B68DB68FA685A61012318461037F2
:10449000BD4680BD4C00002080B584B000AF786080
:1044A0000023FB60084B1B681B6A78689847BB7B3E
:1044B00043F02003BB737B68DB68FA685A61012311
:1044C00018461037BD4680BD4C00002080B487B030
:1044D00000AF78600B46FB707B681B691B697B61D2
:1044E0007B681B695B6B3B61FB783A6922FA03F3DB
:1044F000DB01DBB27A6913437B61FB787A680433B2
:104500009B0013449B689A687B691340FB60FB68BF
:1045100018461C37BD465DF8047B704780B584B0F3
:1045200000AF78600B46FB7078688121402202233F
:1045300000F044FC786801214022022300F03EFC98
:10454000786882210822032300F038FC0B4BFB60C3
:10455000FB68043302221A70FB68053300221A70CC
:10456000074B1B68984778680121064A402300F0F2
:10457000AFFC002318461037BD4680BD6C000020FC
:1045800098000020E809002080B582B000AF786074
:104590000B46FB707868812100F060FC786801218F
:1045A00000F05CFC7868822100F058FC034B5B68EB
:1045B0009847002318460837BD4680BD9800002064
:1045C00080B584B000AF786039603A23FB81404BFE
:1045D000BB603B681B7803F06003002B3FD0202BAF
:1045E00037D13B68DB88002B29D03B681B78DBB2D6
:1045F0005BB2002B11DA374B9B683A685278114650
:104600003A68D2880846344998473B68DB8878681E
:1046100031491A4600F06EFD19E03B685B781A4696
:104620002E4B1A603B68DB881A462D4B1A603B689C
:10463000DB88786828491A4600F090FD07E0254B92
:104640009B683A6852781046002100229847002360
:104650003AE078683968FFF7F9F9022334E03B68FB
:104660005B780A2B18D00B2B1CD0062B2BD13B6868
:104670005B881B0A9BB2212B07D11A4BBB603B689E
:10468000DB883A2B28BF3A23FB81FB897868B9681D
:104690001A4600F02FFD16E078681349012200F059
:1046A00029FD10E03B685B88DBB2002B06D13B683C
:1046B0005B88DBB21A460C4B1A6003E078683968F5
:1046C000FFF7C4F900BF002318461037BD4680BD70
:1046D000B500002098000020280A0020F0000020EB
:1046E0004C010020BE0000203801002080B582B0BF
:1046F00000AF78600A4B1B68FF2B0BD0094B9B68FF
:10470000074A1168084A1268084608499847044B46
:10471000FF221A60002318460837BD4680BD00BF3F
:10472000F0000020980000204C010020280A002002
:1047300080B584B000AF78600B46FB701F4B1B78D0
:10474000012B35D11E4B1B68002B03D11B4B0022C4
:104750001A702DE01A4B1B68402B11D9194B1B689E
:10476000FB814023BB81174B1B6803F14002154BB3
:104770001A60134B1B68A3F14002114B1A600FE043
:10478000104B1B68FB810E4B1B68BB810D4B1A68DD
:104790000B4B1B681A440B4B1A60094B00221A6022
:1047A000FA89094B1A44BB897868812100F0D0FB53
:1047B000002318461037BD4680BD00BF48010020C9
:1047C0004401002040010020300A002080B584B060
:1047D00000AF78600B46FB70FA78796813469B004F
:1047E0001344DB000B4403F562735B68FB81154BDC
:1047F0001B69FA89144811469847134B1B68BB6024
:10480000BB68B3F1FB3F00D010E0104B1A68104BAF
:104810005A60104B1A680E4B9A600F4B1A680C4B7B
:10482000DA600E4B1A680A4B1A6100BF78680121E2
:10483000054A402300F04CFB002318461037BD46C4
:1048400080BD00BF98000020E8090020EC0900208E
:10485000AC010020F0090020F4090020F809002034
:1048600080B582B000AF7860084B1B68591C074ABE
:104870001160052B05D1054B00221A60786800F005
:1048800007F8002318460837BD4680BD50010020B8
:1048900080B584B000AF78602E4B1B78012B56D0CA
:1048A0002D4B1B68B3F5006F02D12B4B00221A6011
:1048B000294B1A68294B1B689A4203D1254B0022C9
:1048C0001A7044E0244B1A68244B1B689A4206D99C
:1048D000214B1B68C3F50062214B1A6006E01F4B99
:1048E0001A681D4B1B68D21A1D4B1A601C4B1B68A3
:1048F000402B11D9184B1B68FB814023BB81164B01
:104900001B6803F14002144B1A60154B1B68A3F19E
:104910004002134B1A600FE00F4B1B68FB81104BDA
:104920001B68BB810C4B1A680D4B1B681A440A4B61
:104930001A600B4B00221A60064B01221A70FA898A
:10494000084B1A44BB897868812100F001FB1037BD
:10495000BD4680BD48010020400100203C010020F0
:1049600044010020300A002080B483B000AF034629
:104970003960FB713B6843221A80034B18460C37A1
:10498000BD465DF8047B7047AC00002080B485B064
:1049900000AF78600023FB60324BFB607B689B7943
:1049A000002B4DD02F4B2F4A11687A681268D243E2
:1049B0000A401A602B4B2B4A51687A681268D2431E
:1049C0000A405A607B681B79FA681344FB60FB68F5
:1049D000FA6811687A6812680A431A60214B214A02
:1049E00091687A681268D2430A409A601D4B1D4A4A
:1049F000D1687A681268D2430A40DA607B685B79D2
:104A0000102B0ED1174B174A91687A6812680A4327
:104A10009A60144B134AD1687A6812680A43DA60C4
:104A20001BE0104BFB607B685B79FA681344FB600A
:104A3000FB68FA6811687A6812680A431A600CE029
:104A40007B681B79FA681344FB60FB68FA6811689D
:104A50007A681268D2430A401A601437BD465DF87E
:104A6000047B7047003C014080B485B000AF7860A3
:104A70000023FB730023BB600C4B1A687B68134058
:104A8000BB600A4B5A697B681340002B05D0BB689A
:104A9000002B02D00123FB7301E00023FB73FB7B9F
:104AA00018461437BD465DF8047B7047003C014052
:104AB00080B483B000AF7860034B7A685A610C37DA
:104AC000BD465DF8047B7047003C014080B483B074
:104AD00000AF03463960FB7197F90730002B0BDA02
:104AE0000D49FB7903F00F03043B3A68D2B212017F
:104AF000D2B20B441A7609E0084997F907303A68B0
:104B0000D2B21201D2B20B4483F800230C37BD4657
:104B10005DF8047B704700BF00ED00E000E100E0BD
:104B200080B500AF4FF4806000F056F8284B0122AA
:104B30001A60274B00221A71254B08225A71244B08
:104B400001229A712248FFF721FF224B38221A7066
:104B5000204B02225A701F4B00229A701D4B0122DB
:104B6000DA701C4800F04AF81A4B06221A70194BEA
:104B700002225A70174B00229A70164B0122DA70EB
:104B8000144800F03BF8134B1D221A70114B012200
:104B90005A70104B00229A700E4B0122DA700D48A9
:104BA00000F02CF80B4B2C221A700A4B00225A7082
:104BB000084B00229A70074B0122DA70054800F07A
:104BC0001DF84FF0FF300021FFF780FF80BD00BFD0
:104BD000341200203012002080B483B000AF78601F
:104BE000054A7B6843F0BF6343F40033D3600C375E
:104BF000BD465DF8047B704700ED00E080B485B0F1
:104C000000AF78600023FB730023BB730F237B731B
:104C10007B68DB78002B37D0254BDB68DB4303F464
:104C2000E0631B0AFB73FB7BC3F10403BB737A7B5A
:104C3000FB7B42FA03F37B737B685B781A46BB7B92
:104C400002FA03F3FB737B689A787B7B1340DAB23A
:104C5000FB7B1343FB73FB7B1B01FB73154A7B68D8
:104C60001B781344FA7B83F80023124B7A6812787E
:104C70005209D2B27968097801F01F01012000FAC7
:104C800001F143F822100EE00A4B7A6812785209BB
:104C9000D2B27968097801F01F01012000FA01F110
:104CA000203243F822101437BD465DF8047B70476C
:104CB00000ED00E000E100E080B584B000AF786076
:104CC0000B46FB70FB7878681946FBF767FB7B683F
:104CD000012283F812217B68002283F8142100232B
:104CE000FB6024E0FA6813469B001344DB0003F5E5
:104CF0008C737A6813440433BB60BB6801225A701A
:104D0000FB68DAB2BB681A70FB689AB2BB68DA80DB
:104D1000BB680022DA70BB6840229A60BB68002240
:104D2000DA60BB6800225A61FB680133FB607B6874
:104D30005B781A46FB689A42D4D80023FB6024E0D3
:104D4000FA6813469B001344DB0003F55C737A6832
:104D500013440433BB60BB6800225A70FB68DAB2AC
:104D6000BB681A70FB689AB2BB68DA80BB68002225
:104D7000DA70BB6840229A60BB680022DA60BB68C8
:104D800000225A61FB680133FB607B685B781A463E
:104D9000FB689A42D4D87868FBF774FC7868FBF714
:104DA000B7FB78680021FBF7F3FC7868FBF776FD2A
:104DB0007868FBF74BFC1037BD4680BD80B584B0EA
:104DC00000AF7860F9703A80BB70FB785BB2002B63
:104DD0000DDAFB7803F07F0213469B001344DB00DF
:104DE00003F58C737A6813440433FB600CE0FB78A2
:104DF00003F07F0213469B001344DB0003F55C7352
:104E00007A6813440433FB60FB7803F07F03DAB263
:104E1000FB681A70FB78DB09DBB21A46FB685A7034
:104E20003A88FB689A60FB68BA78DA70FB685B784E
:104E3000002B04D0FB681B781A46FB68DA80BB782D
:104E4000022B02D1FB6800221A717868F968FBF71F
:104E500011FF002318461037BD4680BD80B584B0D1
:104E600000AF78600B46FB70FB785BB2002B0DDA6D
:104E7000FB7803F07F0213469B001344DB0003F52D
:104E80008C737A6813440433FB600CE0FB7803F006
:104E90007F0213469B001344DB0003F55C737A68C2
:104EA00013440433FB60FB7803F07F03DAB2FB6842
:104EB0001A70FB78DB09DBB21A46FB685A70786817
:104EC000F968FBF745FF002318461037BD4680BD43
:104ED00080B586B000AFF8607A600A46FA723B810E
:104EE000FB7A03F07F0213469B001344DB0003F5BB
:104EF0005C73FA68134404337B617B697A68DA6017
:104F00003A897B695A617B6900229A617B69002238
:104F10005A70FB7A03F07F03DAB27B691A70FB6880
:104F2000DB78012B02D17A687B691A617B691B7877
:104F3000002B04D1F8687969FCF790F803E0F86871
:104F40007969FBF74BFF002318461837BD4680BD33
:104F500080B586B000AFF8607A603B600B46FB72AC
:104F6000FB7A03F07F0213469B001344DB0003F53A
:104F70008C73FA68134404337B617B6901225A7095
:104F8000FB7A03F07F03DAB27B691A707B697A6877
:104F9000DA607A687B691A617B6900229A617B69B1
:104FA0003A685A617B691B78002B04D1F8687969EB
:104FB000FCF754F803E0F8687969FBF70FFF00236A
:104FC00018461837BD4680BD80B584B000AF786004
:104FD0000B46FB70FB785BB2002B0DDAFB7803F01D
:104FE0007F0213469B001344DB0003F58C737A6841
:104FF00013440433FB600AE0FA7813469B00134421
:10500000DB0003F55C737A6813440433FB60FB68D0
:1050100001229A70FB7803F07F03DAB2FB681A7002
:10502000FB78DB09DBB21A46FB685A707868F968CE
:10503000FCF7FEF8002318461037BD4680BD00BFC0
:1050400080B584B000AF78600B46FB70FB785BB234
:10505000002B0DDAFB7803F07F0213469B0013440C
:10506000DB0003F58C737A6813440433FB600AE0B9
:10507000FA7813469B001344DB0003F55C737A68EF
:1050800013440433FB60FB6800229A70FB7803F042
:105090007F03DAB2FB681A70FB78DB09DBB21A46D1
:1050A000FB685A707868F968FCF706F9002318461F
:1050B0001037BD4680BD00BF80B485B000AF7860BA
:1050C0000B46FB700023FB60FB7803F07F03DAB232
:1050D000BB8962F30A13BB817B681B697A6812691A
:1050E0001168FA680A431A601437BD465DF8047BFC
:1050F000704700BF80B586B000AFF860B960134656
:10510000FB800023FB75FA88FB68C3F83C21FA8812
:10511000FB68C3F83821FB68022283F81121FB8861
:10512000F8680021BA68FFF713FFFB7D18461837AF
:10513000BD4680BD80B586B000AFF860B96013464B
:10514000FB800023FB75FB88F8680021BA68FFF735
:10515000FFFEFB7D18461837BD4680BD80B586B082
:1051600000AFF860B9601346FB800023FB75FA8836
:10517000FB68C3F89423FA88FB68C3F89023FB68A4
:10518000032283F81121FB88F8680021BA68FFF731
:105190009FFEFB7D18461837BD4680BD80B586B0A2
:1051A00000AFF860B9601346FB800023FB75FB88F5
:1051B000F8680021BA68FFF78BFEFB7D18461837A8
:1051C000BD4680BD80B584B000AF78600023FB731E
:1051D0007B68042283F811217868002100220023D3
:1051E000FFF7B6FE7868FCF7EBF8FB7B1846103744
:1051F000BD4680BD80B584B000AF78600023FB73EE
:105200007B68052283F811217868002100220023A1
:10521000FFF75EFE7868FCF7D3F8FB7B1846103783
:10522000BD4680BD80B500AF1B48FDF7E5FC1B4BBC
:1052300000221A60194B1A4A5A601A4A174B9A6090
:10524000164B0022DA60154B03221A61134B002221
:105250005A61124B4FF480629A61104B4FF4006216
:10526000DA610E4B4FF400521A620C4B4FF480720D
:105270005A620A4B4FF400329A6207480749FDF719
:105280008DFD054810210122FDF728FE024801216D
:10529000FDF7DAFD80BD00BF106402403C12002023
:1052A000082301405401002080B485B000AF78602D
:1052B00039600023FB817B681B88FB817A68284B5F
:1052C0009A4213D07A68274B9A420FD07B68B3F189
:1052D000804F0BD07A68244B9A4207D07A68234BD0
:1052E0009A4203D07A68224B9A4208D1FB8923F074
:1052F0007003FB813B685A88FB891343FB817A6802
:105300001C4B9A420CD07A681B4B9A4208D0FB89FE
:1053100023F44073FB813B681A89FB891343FB81AB
:105320007B68FA891A803B685A687B68DA623B6856
:105330001A887B681A857A68094B9A4203D07A6882
:10534000084B9A4204D13B689B7A1A467B681A86BE
:105350007B6801229A821437BD465DF8047B704752
:10536000000001400004014000040040000800402B
:10537000000C0040001000400014004080B483B0D6
:1053800000AF78600B46FB70FB78002B08D07B6881
:105390001B889BB243F080039AB27B681A8007E0B7
:1053A0007B681B889BB223F080039AB27B681A80CB
:1053B0000C37BD465DF8047B704700BF80B483B0F6
:1053C00000AF78600B46FB70FB78002B08D07B6841
:1053D0001B889BB243F001039AB27B681A8007E0F6
:1053E0007B681B889BB223F001039AB27B681A800A
:1053F0000C37BD465DF8047B704700BF80B485B0B4
:1054000000AF7860396000237B810023FB8100239B
:10541000BB817B681B8C9BB223F001039AB27B6833
:105420001A847B681B8CFB817B689B88BB817B68B3
:105430001B8B7B817B8923F070037B817B8923F02D
:1054400003037B813B681A887B8913437B81FB893B
:1054500023F00203FB813B689A89FB891343FB819C
:105460003B685A88FB891343FB817A681E4B9A423A
:1054700003D07A681D4B9A4223D1FB8923F008039D
:10548000FB813B68DA89FB891343FB81FB8923F0AD
:105490000403FB813B689A88FB891343FB81BB892A
:1054A00023F48073BB81BB8923F40073BB813B6809
:1054B0001A8ABB891343BB813B685A8ABB89134351
:1054C000BB817B68BA899A807B687A891A833B683A
:1054D0009A687B685A637B68FA891A841437BD46D8
:1054E0005DF8047B704700BF0000014000040140EC
:1054F00080B485B000AF7860396000237B810023E1
:10550000FB810023BB817B681B8C9BB223F01003C3
:105510009AB27B681A847B681B8CFB817B689B88B2
:10552000BB817B681B8B7B817B8923F4E0437B8180
:105530007B8923F440737B813B681B881B029AB2F2
:105540007B8913437B81FB8923F02003FB813B682C
:105550009B891B019AB2FB891343FB813B685B88E3
:105560001B019AB2FB891343FB817A68224B9A4252
:1055700003D07A68214B9A422BD1FB8923F0800318
:10558000FB813B68DB891B019AB2FB891343FB81DA
:10559000FB8923F04003FB813B689B881B019AB287
:1055A000FB891343FB81BB8923F48063BB81BB89E7
:1055B00023F40063BB813B681B8A9B009AB2BB89C2
:1055C0001343BB813B685B8A9B009AB2BB89134340
:1055D000BB817B68BA899A807B687A891A833B6829
:1055E0009A687B689A637B68FA891A841437BD4687
:1055F0005DF8047B704700BF0000014000040140DB
:1056000080B485B000AF7860396000237B810023CF
:10561000FB810023BB817B681B8C9BB223F48073CE
:105620009AB27B681A847B681B8CFB817B689B88A1
:10563000BB817B689B8B7B817B8923F070037B81A3
:105640007B8923F003037B813B681A887B891343A2
:105650007B81FB8923F40073FB813B689B891B02E0
:105660009AB2FB891343FB813B685B881B029AB2A9
:10567000FB891343FB817A68224B9A4203D07A68F4
:10568000214B9A422BD1FB8923F40063FB813B68B9
:10569000DB891B029AB2FB891343FB81FB8923F44C
:1056A0008063FB813B689B881B029AB2FB89134392
:1056B000FB81BB8923F48053BB81BB8923F4005356
:1056C000BB813B681B8A1B019AB2BB891343BB8118
:1056D0003B685B8A1B019AB2BB891343BB817B6821
:1056E000BA899A807B687A899A833B689A687B68D2
:1056F000DA637B68FA891A841437BD465DF8047B47
:10570000704700BF000001400004014080B485B034
:1057100000AF786039600023BB8100237B810023C8
:10572000FB817B681B8C9BB223F480539AB27B680D
:105730001A847B681B8C7B817B689B88FB817B68E0
:105740009B8BBB81BB8923F4E043BB81BB8923F4E2
:105750004073BB813B681B881B029AB2BB89134311
:10576000BB817B8923F400537B813B689B891B03AE
:105770009AB27B8913437B813B685B881B039AB297
:105780007B8913437B817A68114B9A4203D07A68F4
:10579000104B9A420AD1FB8923F48043FB813B687A
:1057A0001B8A9B019AB2FB891343FB817B68FA89B0
:1057B0009A807B68BA899A833B689A687B681A6486
:1057C0007B687A891A841437BD465DF8047B70477C
:1057D000000001400004014080B483B000AF786055
:1057E00039607B683A685A630C37BD465DF8047BC4
:1057F000704700BF80B483B000AF786039607B68C9
:105800003A689A630C37BD465DF8047B704700BF69
:1058100080B483B000AF786039607B683A68DA633F
:105820000C37BD465DF8047B704700BF80B483B081
:1058300000AF786039607B683A681A640C37BD46FF
:105840005DF8047B704700BF80B483B000AF786020
:105850000B46FB70FB78002B0CD07B68B3F8443010
:105860009BB26FEA43436FEA53439AB27B68A3F853
:10587000442009E07B68B3F844309BB2C3F30E03C5
:105880009AB27B68A3F844200C37BD465DF8047BD0
:10589000704700BF80B483B000AF786013460A46FB
:1058A0007A807B707B78002B08D07B689B899AB2CA
:1058B0007B8813439AB27B689A8109E07B689B8955
:1058C0009AB27B88DB439BB213409AB27B689A8181
:1058D0000C37BD465DF8047B704700BF80B485B0CF
:1058E00000AF78600B467B800023FB730023BB81F5
:1058F00000237B817B681B8A9AB27B881340BB8123
:105900007B689B899AB27B8813407B81BB89002B83
:1059100005D07B89002B02D00123FB7301E000231B
:10592000FB73FB7B18461437BD465DF8047B70475C
:1059300080B483B000AF78600B467B807B88DB430C
:105940009AB27B681A820C37BD465DF8047B7047BB
:1059500081F0004102E000BF83F0004330B54FEA20
:1059600041044FEA430594EA050F08BF90EA020F8D
:105970001FBF54EA000C55EA020C7FEA645C7FEA20
:10598000655C00F0E2804FEA5454D4EB5555B8BF43
:105990006D420CDD2C4480EA020281EA030382EAB4
:1059A000000083EA010180EA020281EA0303362D46
:1059B00088BF30BD11F0004F4FEA01314FF4801C19
:1059C0004CEA113102D0404261EB410113F0004F2B
:1059D0004FEA03334CEA133302D0524263EB4303E2
:1059E00094EA050F00F0A780A4F10104D5F1200E80
:1059F0000DDB02FA0EFC22FA05F2801841F10001DB
:105A000003FA0EF2801843FA05F359410EE0A5F1AE
:105A100020050EF1200E012A03FA0EFC28BF4CF0DF
:105A2000020C43FA05F3C01851EBE37101F0004595
:105A300007D54FF0000EDCF1000C7EEB00006EEBA2
:105A40000101B1F5801F1BD3B1F5001F0CD349082C
:105A50005FEA30004FEA3C0C04F101044FEA445283
:105A600012F5800F80F09A80BCF1004F08BF5FEA0A
:105A7000500C50F1000041EB045141EA050130BDEA
:105A80005FEA4C0C404141EB010111F4801FA4F18D
:105A90000104E9D191F0000F04BF01460020B1FAE2
:105AA00081F308BF2033A3F10B03B3F120020CDA1A
:105AB0000C3208DD02F1140CC2F10C0201FA0CF0F8
:105AC00021FA02F10CE002F11402D8BFC2F1200C5D
:105AD00001FA02F120FA0CFCDCBF41EA0C01904013
